{
  "contractName": "DiagnosticRegistration",
  "abi": [
    {
      "anonymous": false,
      "inputs": [
        {
          "indexed": true,
          "internalType": "address",
          "name": "diagnosticAddress",
          "type": "address"
        },
        {
          "indexed": false,
          "internalType": "string",
          "name": "diagnosticCenterName",
          "type": "string"
        }
      ],
      "name": "DiagnosticCenterRegistered",
      "type": "event"
    },
    {
      "inputs": [
        {
          "internalType": "address",
          "name": "_diagnosticAddress",
          "type": "address"
        },
        {
          "internalType": "string",
          "name": "_diagnosticCenterName",
          "type": "string"
        },
        {
          "internalType": "string",
          "name": "_phoneNumber",
          "type": "string"
        },
        {
          "internalType": "string",
          "name": "_personalAddress",
          "type": "string"
        },
        {
          "internalType": "string",
          "name": "_password",
          "type": "string"
        }
      ],
      "name": "registerDiagnostic",
      "outputs": [],
      "stateMutability": "nonpayable",
      "type": "function"
    },
    {
      "inputs": [
        {
          "internalType": "address",
          "name": "_diagnosticAddress",
          "type": "address"
        },
        {
          "internalType": "string",
          "name": "_password",
          "type": "string"
        }
      ],
      "name": "validateDiagnosticPassword",
      "outputs": [
        {
          "internalType": "bool",
          "name": "",
          "type": "bool"
        }
      ],
      "stateMutability": "view",
      "type": "function",
      "constant": true
    },
    {
      "inputs": [
        {
          "internalType": "address",
          "name": "_diagnosticAddress",
          "type": "address"
        }
      ],
      "name": "getDiagnosticCenterDetails",
      "outputs": [
        {
          "components": [
            {
              "internalType": "address",
              "name": "diagnosticAddress",
              "type": "address"
            },
            {
              "internalType": "string",
              "name": "diagnosticCenterName",
              "type": "string"
            },
            {
              "internalType": "string",
              "name": "phoneNumber",
              "type": "string"
            },
            {
              "internalType": "string",
              "name": "personalAddress",
              "type": "string"
            },
            {
              "internalType": "string",
              "name": "password",
              "type": "string"
            }
          ],
          "internalType": "struct DiagnosticRegistration.DiagnosticCenter",
          "name": "",
          "type": "tuple"
        }
      ],
      "stateMutability": "view",
      "type": "function",
      "constant": true
    },
    {
      "inputs": [
        {
          "internalType": "address",
          "name": "_diagnosticAddress",
          "type": "address"
        }
      ],
      "name": "isRegisteredDiagnostic",
      "outputs": [
        {
          "internalType": "bool",
          "name": "",
          "type": "bool"
        }
      ],
      "stateMutability": "view",
      "type": "function",
      "constant": true
    }
  ],
  "bytecode": "0x6080604052348015600e575f5ffd5b506110a48061001c5f395ff3fe608060405234801561000f575f5ffd5b506004361061004a575f3560e01c806313a451e21461004e5780637407c3d61461007e578063897b4972146100ae578063a9aff072146100de575b5f5ffd5b610068600480360381019061006391906107cb565b6100fa565b6040516100759190610810565b60405180910390f35b61009860048036038101906100939190610965565b61014c565b6040516100a59190610810565b60405180910390f35b6100c860048036038101906100c391906107cb565b6101e2565b6040516100d59190610ab6565b60405180910390f35b6100f860048036038101906100f39190610ad6565b6104cc565b005b5f60015f8373ffffffffffffffffffffffffffffffffffffffff1673ffffffffffffffffffffffffffffffffffffffff1681526020019081526020015f205f9054906101000a900460ff169050919050565b5f5f5f8473ffffffffffffffffffffffffffffffffffffffff1673ffffffffffffffffffffffffffffffffffffffff1681526020019081526020015f2060040160405160200161019c9190610cb6565b60405160208183030381529060405280519060200120826040516020016101c39190610cfc565b6040516020818303038152906040528051906020012014905092915050565b6101ea61071c565b5f5f8373ffffffffffffffffffffffffffffffffffffffff1673ffffffffffffffffffffffffffffffffffffffff1681526020019081526020015f206040518060a00160405290815f82015f9054906101000a900473ffffffffffffffffffffffffffffffffffffffff1673ffffffffffffffffffffffffffffffffffffffff1673ffffffffffffffffffffffffffffffffffffffff16815260200160018201805461029590610bea565b80601f01602080910402602001604051908101604052809291908181526020018280546102c190610bea565b801561030c5780601f106102e35761010080835404028352916020019161030c565b820191905f5260205f20905b8154815290600101906020018083116102ef57829003601f168201915b5050505050815260200160028201805461032590610bea565b80601f016020809104026020016040519081016040528092919081815260200182805461035190610bea565b801561039c5780601f106103735761010080835404028352916020019161039c565b820191905f5260205f20905b81548152906001019060200180831161037f57829003601f168201915b505050505081526020016003820180546103b590610bea565b80601f01602080910402602001604051908101604052809291908181526020018280546103e190610bea565b801561042c5780601f106104035761010080835404028352916020019161042c565b820191905f5260205f20905b81548152906001019060200180831161040f57829003601f168201915b5050505050815260200160048201805461044590610bea565b80601f016020809104026020016040519081016040528092919081815260200182805461047190610bea565b80156104bc5780601f10610493576101008083540402835291602001916104bc565b820191905f5260205f20905b81548152906001019060200180831161049f57829003601f168201915b5050505050815250509050919050565b60015f8673ffffffffffffffffffffffffffffffffffffffff1673ffffffffffffffffffffffffffffffffffffffff1681526020019081526020015f205f9054906101000a900460ff1615610556576040517f08c379a000000000000000000000000000000000000000000000000000000000815260040161054d90610d92565b60405180910390fd5b5f6040518060a001604052808773ffffffffffffffffffffffffffffffffffffffff168152602001868152602001858152602001848152602001838152509050805f5f8873ffffffffffffffffffffffffffffffffffffffff1673ffffffffffffffffffffffffffffffffffffffff1681526020019081526020015f205f820151815f015f6101000a81548173ffffffffffffffffffffffffffffffffffffffff021916908373ffffffffffffffffffffffffffffffffffffffff160217905550602082015181600101908161062c9190610f47565b5060408201518160020190816106429190610f47565b5060608201518160030190816106589190610f47565b50608082015181600401908161066e9190610f47565b509050506001805f8873ffffffffffffffffffffffffffffffffffffffff1673ffffffffffffffffffffffffffffffffffffffff1681526020019081526020015f205f6101000a81548160ff0219169083151502179055508573ffffffffffffffffffffffffffffffffffffffff167f21c7a12bc08470531455a7bd824f8b494cba89967f9bc5e9096ef09d25c8ae798660405161070c919061104e565b60405180910390a2505050505050565b6040518060a001604052805f73ffffffffffffffffffffffffffffffffffffffff168152602001606081526020016060815260200160608152602001606081525090565b5f604051905090565b5f5ffd5b5f5ffd5b5f73ffffffffffffffffffffffffffffffffffffffff82169050919050565b5f61079a82610771565b9050919050565b6107aa81610790565b81146107b4575f5ffd5b50565b5f813590506107c5816107a1565b92915050565b5f602082840312156107e0576107df610769565b5b5f6107ed848285016107b7565b91505092915050565b5f8115159050919050565b61080a816107f6565b82525050565b5f6020820190506108235f830184610801565b92915050565b5f5ffd5b5f5ffd5b5f601f19601f8301169050919050565b7f4e487b71000000000000000000000000000000000000000000000000000000005f52604160045260245ffd5b61087782610831565b810181811067ffffffffffffffff8211171561089657610895610841565b5b80604052505050565b5f6108a8610760565b90506108b4828261086e565b919050565b5f67ffffffffffffffff8211156108d3576108d2610841565b5b6108dc82610831565b9050602081019050919050565b828183375f83830152505050565b5f610909610904846108b9565b61089f565b9050828152602081018484840111156109255761092461082d565b5b6109308482856108e9565b509392505050565b5f82601f83011261094c5761094b610829565b5b813561095c8482602086016108f7565b91505092915050565b5f5f6040838503121561097b5761097a610769565b5b5f610988858286016107b7565b925050602083013567ffffffffffffffff8111156109a9576109a861076d565b5b6109b585828601610938565b9150509250929050565b6109c881610790565b82525050565b5f81519050919050565b5f82825260208201905092915050565b8281835e5f83830152505050565b5f610a00826109ce565b610a0a81856109d8565b9350610a1a8185602086016109e8565b610a2381610831565b840191505092915050565b5f60a083015f830151610a435f8601826109bf565b5060208301518482036020860152610a5b82826109f6565b91505060408301518482036040860152610a7582826109f6565b91505060608301518482036060860152610a8f82826109f6565b91505060808301518482036080860152610aa982826109f6565b9150508091505092915050565b5f6020820190508181035f830152610ace8184610a2e565b905092915050565b5f5f5f5f5f60a08688031215610aef57610aee610769565b5b5f610afc888289016107b7565b955050602086013567ffffffffffffffff811115610b1d57610b1c61076d565b5b610b2988828901610938565b945050604086013567ffffffffffffffff811115610b4a57610b4961076d565b5b610b5688828901610938565b935050606086013567ffffffffffffffff811115610b7757610b7661076d565b5b610b8388828901610938565b925050608086013567ffffffffffffffff811115610ba457610ba361076d565b5b610bb088828901610938565b9150509295509295909350565b7f4e487b71000000000000000000000000000000000000000000000000000000005f52602260045260245ffd5b5f6002820490506001821680610c0157607f821691505b602082108103610c1457610c13610bbd565b5b50919050565b5f81905092915050565b5f819050815f5260205f209050919050565b5f8154610c4281610bea565b610c4c8186610c1a565b9450600182165f8114610c665760018114610c7b57610cad565b60ff1983168652811515820286019350610cad565b610c8485610c24565b5f5b83811015610ca557815481890152600182019150602081019050610c86565b838801955050505b50505092915050565b5f610cc18284610c36565b915081905092915050565b5f610cd6826109ce565b610ce08185610c1a565b9350610cf08185602086016109e8565b80840191505092915050565b5f610d078284610ccc565b915081905092915050565b5f82825260208201905092915050565b7f446961676e6f737469632063656e74657220616c7265616479207265676973745f8201527f6572656400000000000000000000000000000000000000000000000000000000602082015250565b5f610d7c602483610d12565b9150610d8782610d22565b604082019050919050565b5f6020820190508181035f830152610da981610d70565b9050919050565b5f6020601f8301049050919050565b5f82821b905092915050565b5f60088302610dfa7fffffffffffffffffffffffffffffffffffffffffffffffffffffffffffffffff82610dbf565b610e048683610dbf565b95508019841693508086168417925050509392505050565b5f819050919050565b5f819050919050565b5f610e48610e43610e3e84610e1c565b610e25565b610e1c565b9050919050565b5f819050919050565b610e6183610e2e565b610e75610e6d82610e4f565b848454610dcb565b825550505050565b5f5f905090565b610e8c610e7d565b610e97818484610e58565b505050565b5b81811015610eba57610eaf5f82610e84565b600181019050610e9d565b5050565b601f821115610eff57610ed081610c24565b610ed984610db0565b81016020851015610ee8578190505b610efc610ef485610db0565b830182610e9c565b50505b505050565b5f82821c905092915050565b5f610f1f5f1984600802610f04565b1980831691505092915050565b5f610f378383610f10565b9150826002028217905092915050565b610f50826109ce565b67ffffffffffffffff811115610f6957610f68610841565b5b610f738254610bea565b610f7e828285610ebe565b5f60209050601f831160018114610faf575f8415610f9d578287015190505b610fa78582610f2c565b86555061100e565b601f198416610fbd86610c24565b5f5b82811015610fe457848901518255600182019150602085019450602081019050610fbf565b868310156110015784890151610ffd601f891682610f10565b8355505b6001600288020188555050505b505050505050565b5f611020826109ce565b61102a8185610d12565b935061103a8185602086016109e8565b61104381610831565b840191505092915050565b5f6020820190508181035f8301526110668184611016565b90509291505056fea2646970667358221220abf8f5664971442133e1efdb2ffef5d0eb4a6d0b6d7c593c9fe8223f3bd7e73a64736f6c634300081c0033",
  "immutableReferences": {},
  "source": "// SPDX-License-Identifier: MIT\npragma solidity ^0.8.19;\n\ncontract DiagnosticRegistration {\n    struct DiagnosticCenter {\n        address diagnosticAddress;\n        string diagnosticCenterName;\n        string phoneNumber;\n        string personalAddress; // Renamed variable from 'address' to 'personalAddress'\n        string password;\n    }\n\n    mapping(address => DiagnosticCenter) private diagnosticCenters;\n    mapping(address => bool) private isDiagnosticCenterRegistered;\n\n    event DiagnosticCenterRegistered(address indexed diagnosticAddress, string diagnosticCenterName);\n\n    function registerDiagnostic(\n        address _diagnosticAddress,\n        string memory _diagnosticCenterName,\n        string memory _phoneNumber,\n        string memory _personalAddress, // Renamed variable from 'address' to 'personalAddress'\n        string memory _password\n    ) external {\n        require(!isDiagnosticCenterRegistered[_diagnosticAddress], \"Diagnostic center already registered\");\n\n        DiagnosticCenter memory newDiagnosticCenter = DiagnosticCenter({\n            diagnosticAddress: _diagnosticAddress,\n            diagnosticCenterName: _diagnosticCenterName,\n            phoneNumber: _phoneNumber,\n            personalAddress: _personalAddress, // Renamed variable from 'address' to 'personalAddress'\n            password: _password\n        });\n\n        diagnosticCenters[_diagnosticAddress] = newDiagnosticCenter;\n        isDiagnosticCenterRegistered[_diagnosticAddress] = true;\n\n        emit DiagnosticCenterRegistered(_diagnosticAddress, _diagnosticCenterName);\n    }\n\n    function validateDiagnosticPassword(address _diagnosticAddress, string memory _password) external view returns (bool) {\n        return keccak256(abi.encodePacked(_password)) == keccak256(abi.encodePacked(diagnosticCenters[_diagnosticAddress].password));\n    }\n\n    function getDiagnosticCenterDetails(address _diagnosticAddress) external view returns (DiagnosticCenter memory) {\n        return diagnosticCenters[_diagnosticAddress];\n    }\n\n    function isRegisteredDiagnostic(address _diagnosticAddress) external view returns (bool) {\n        return isDiagnosticCenterRegistered[_diagnosticAddress];\n    }\n}",
  "sourcePath": "F:\\4.1\\Secure-Electronic-Health-Records-c01989145c80a73a2d9fd0057045bd33fe4448ad\\smart health blockchain system\\src\\contracts\\DiagnosticRegistration.sol",
  "compiler": {
    "name": "solc",
    "version": "0.8.28+commit.7893614a.Emscripten.clang"
  },
  "schemaVersion": "3.4.16",
  "updatedAt": "2024-12-23T15:07:50.219Z",
  "networkType": "ethereum",
  "devdoc": {
    "kind": "dev",
    "methods": {},
    "version": 1
  },
  "userdoc": {
    "kind": "user",
    "methods": {},
    "version": 1
  }
}