{
  "contractName": "PatientRegistry",
  "abi": [
    {
      "anonymous": false,
      "inputs": [
        {
          "indexed": true,
          "internalType": "address",
          "name": "patientAddress",
          "type": "address"
        },
        {
          "indexed": false,
          "internalType": "string",
          "name": "name",
          "type": "string"
        }
      ],
      "name": "PatientRegistered",
      "type": "event"
    },
    {
      "inputs": [
        {
          "internalType": "address",
          "name": "",
          "type": "address"
        }
      ],
      "name": "isPatient",
      "outputs": [
        {
          "internalType": "bool",
          "name": "",
          "type": "bool"
        }
      ],
      "stateMutability": "view",
      "type": "function",
      "constant": true
    },
    {
      "inputs": [
        {
          "internalType": "address",
          "name": "",
          "type": "address"
        }
      ],
      "name": "patients",
      "outputs": [
        {
          "internalType": "string",
          "name": "name",
          "type": "string"
        },
        {
          "internalType": "string",
          "name": "dateOfBirth",
          "type": "string"
        },
        {
          "internalType": "string",
          "name": "homeAddress",
          "type": "string"
        },
        {
          "internalType": "string",
          "name": "phoneNumber",
          "type": "string"
        },
        {
          "internalType": "address",
          "name": "walletAddress",
          "type": "address"
        },
        {
          "internalType": "string",
          "name": "gender",
          "type": "string"
        }
      ],
      "stateMutability": "view",
      "type": "function",
      "constant": true
    },
    {
      "inputs": [
        {
          "internalType": "string",
          "name": "_name",
          "type": "string"
        },
        {
          "internalType": "string",
          "name": "_dateOfBirth",
          "type": "string"
        },
        {
          "internalType": "string",
          "name": "_homeAddress",
          "type": "string"
        },
        {
          "internalType": "string",
          "name": "_phoneNumber",
          "type": "string"
        },
        {
          "internalType": "address",
          "name": "_walletAddress",
          "type": "address"
        },
        {
          "internalType": "string",
          "name": "_gender",
          "type": "string"
        }
      ],
      "name": "registerPatient",
      "outputs": [],
      "stateMutability": "nonpayable",
      "type": "function"
    },
    {
      "inputs": [
        {
          "internalType": "address",
          "name": "_walletAddress",
          "type": "address"
        }
      ],
      "name": "isRegisteredPatient",
      "outputs": [
        {
          "internalType": "bool",
          "name": "",
          "type": "bool"
        }
      ],
      "stateMutability": "view",
      "type": "function",
      "constant": true
    },
    {
      "inputs": [
        {
          "internalType": "address",
          "name": "_walletAddress",
          "type": "address"
        }
      ],
      "name": "givepermissioncreate",
      "outputs": [],
      "stateMutability": "nonpayable",
      "type": "function"
    },
    {
      "inputs": [
        {
          "internalType": "address",
          "name": "_walletAddress",
          "type": "address"
        }
      ],
      "name": "revokepermissioncreate",
      "outputs": [],
      "stateMutability": "nonpayable",
      "type": "function"
    },
    {
      "inputs": [
        {
          "internalType": "address",
          "name": "patientaddress",
          "type": "address"
        },
        {
          "internalType": "address",
          "name": "_walletAddress",
          "type": "address"
        }
      ],
      "name": "haspermission",
      "outputs": [
        {
          "internalType": "bool",
          "name": "",
          "type": "bool"
        }
      ],
      "stateMutability": "view",
      "type": "function",
      "constant": true
    }
  ],
  "bytecode": "0x6080604052348015600e575f5ffd5b5061113a8061001c5f395ff3fe608060405234801561000f575f5ffd5b506004361061007b575f3560e01c80633c4f7a9d116100595780633c4f7a9d146101005780638f9c79ed14610130578063a7179ee914610160578063ab3ac4ab1461017c5761007b565b806303efe6921461007f5780630869cfbc1461009b5780632d2760d8146100d0575b5f5ffd5b610099600480360381019061009491906109c9565b610198565b005b6100b560048036038101906100b091906109c9565b61022b565b6040516100c796959493929190610a73565b60405180910390f35b6100ea60048036038101906100e59190610af5565b610520565b6040516100f79190610b4d565b60405180910390f35b61011a600480360381019061011591906109c9565b6105ae565b6040516101279190610b4d565b60405180910390f35b61014a600480360381019061014591906109c9565b6105ff565b6040516101579190610b4d565b60405180910390f35b61017a60048036038101906101759190610c92565b61061b565b005b610196600480360381019061019191906109c9565b6108cc565b005b600160025f3373ffffffffffffffffffffffffffffffffffffffff1673ffffffffffffffffffffffffffffffffffffffff1681526020019081526020015f205f8373ffffffffffffffffffffffffffffffffffffffff1673ffffffffffffffffffffffffffffffffffffffff1681526020019081526020015f205f6101000a81548160ff02191690831515021790555050565b6001602052805f5260405f205f91509050805f01805461024a90610dd4565b80601f016020809104026020016040519081016040528092919081815260200182805461027690610dd4565b80156102c15780601f10610298576101008083540402835291602001916102c1565b820191905f5260205f20905b8154815290600101906020018083116102a457829003601f168201915b5050505050908060010180546102d690610dd4565b80601f016020809104026020016040519081016040528092919081815260200182805461030290610dd4565b801561034d5780601f106103245761010080835404028352916020019161034d565b820191905f5260205f20905b81548152906001019060200180831161033057829003601f168201915b50505050509080600201805461036290610dd4565b80601f016020809104026020016040519081016040528092919081815260200182805461038e90610dd4565b80156103d95780601f106103b0576101008083540402835291602001916103d9565b820191905f5260205f20905b8154815290600101906020018083116103bc57829003601f168201915b5050505050908060030180546103ee90610dd4565b80601f016020809104026020016040519081016040528092919081815260200182805461041a90610dd4565b80156104655780601f1061043c57610100808354040283529160200191610465565b820191905f5260205f20905b81548152906001019060200180831161044857829003601f168201915b505050505090806004015f9054906101000a900473ffffffffffffffffffffffffffffffffffffffff169080600501805461049f90610dd4565b80601f01602080910402602001604051908101604052809291908181526020018280546104cb90610dd4565b80156105165780601f106104ed57610100808354040283529160200191610516565b820191905f5260205f20905b8154815290600101906020018083116104f957829003601f168201915b5050505050905086565b5f60025f8473ffffffffffffffffffffffffffffffffffffffff1673ffffffffffffffffffffffffffffffffffffffff1681526020019081526020015f205f8373ffffffffffffffffffffffffffffffffffffffff1673ffffffffffffffffffffffffffffffffffffffff1681526020019081526020015f205f9054906101000a900460ff16905092915050565b5f5f5f8373ffffffffffffffffffffffffffffffffffffffff1673ffffffffffffffffffffffffffffffffffffffff1681526020019081526020015f205f9054906101000a900460ff169050919050565b5f602052805f5260405f205f915054906101000a900460ff1681565b8173ffffffffffffffffffffffffffffffffffffffff1660015f8473ffffffffffffffffffffffffffffffffffffffff1673ffffffffffffffffffffffffffffffffffffffff1681526020019081526020015f206004015f9054906101000a900473ffffffffffffffffffffffffffffffffffffffff1673ffffffffffffffffffffffffffffffffffffffff16036106e8576040517f08c379a00000000000000000000000000000000000000000000000000000000081526004016106df90610e4e565b60405180910390fd5b5f6040518060c001604052808881526020018781526020018681526020018581526020018473ffffffffffffffffffffffffffffffffffffffff1681526020018381525090508060015f8573ffffffffffffffffffffffffffffffffffffffff1673ffffffffffffffffffffffffffffffffffffffff1681526020019081526020015f205f820151815f01908161077f9190611015565b5060208201518160010190816107959190611015565b5060408201518160020190816107ab9190611015565b5060608201518160030190816107c19190611015565b506080820151816004015f6101000a81548173ffffffffffffffffffffffffffffffffffffffff021916908373ffffffffffffffffffffffffffffffffffffffff16021790555060a082015181600501908161081d9190611015565b5090505060015f5f8573ffffffffffffffffffffffffffffffffffffffff1673ffffffffffffffffffffffffffffffffffffffff1681526020019081526020015f205f6101000a81548160ff0219169083151502179055508273ffffffffffffffffffffffffffffffffffffffff167fc85b128388b9c331a2a5485dce4cd0f3db9f7c279d327ce95d6d39d6c94644c7886040516108bb91906110e4565b60405180910390a250505050505050565b5f60025f3373ffffffffffffffffffffffffffffffffffffffff1673ffffffffffffffffffffffffffffffffffffffff1681526020019081526020015f205f8373ffffffffffffffffffffffffffffffffffffffff1673ffffffffffffffffffffffffffffffffffffffff1681526020019081526020015f205f6101000a81548160ff02191690831515021790555050565b5f604051905090565b5f5ffd5b5f5ffd5b5f73ffffffffffffffffffffffffffffffffffffffff82169050919050565b5f6109988261096f565b9050919050565b6109a88161098e565b81146109b2575f5ffd5b50565b5f813590506109c38161099f565b92915050565b5f602082840312156109de576109dd610967565b5b5f6109eb848285016109b5565b91505092915050565b5f81519050919050565b5f82825260208201905092915050565b8281835e5f83830152505050565b5f601f19601f8301169050919050565b5f610a36826109f4565b610a4081856109fe565b9350610a50818560208601610a0e565b610a5981610a1c565b840191505092915050565b610a6d8161098e565b82525050565b5f60c0820190508181035f830152610a8b8189610a2c565b90508181036020830152610a9f8188610a2c565b90508181036040830152610ab38187610a2c565b90508181036060830152610ac78186610a2c565b9050610ad66080830185610a64565b81810360a0830152610ae88184610a2c565b9050979650505050505050565b5f5f60408385031215610b0b57610b0a610967565b5b5f610b18858286016109b5565b9250506020610b29858286016109b5565b9150509250929050565b5f8115159050919050565b610b4781610b33565b82525050565b5f602082019050610b605f830184610b3e565b92915050565b5f5ffd5b5f5ffd5b7f4e487b71000000000000000000000000000000000000000000000000000000005f52604160045260245ffd5b610ba482610a1c565b810181811067ffffffffffffffff82111715610bc357610bc2610b6e565b5b80604052505050565b5f610bd561095e565b9050610be18282610b9b565b919050565b5f67ffffffffffffffff821115610c0057610bff610b6e565b5b610c0982610a1c565b9050602081019050919050565b828183375f83830152505050565b5f610c36610c3184610be6565b610bcc565b905082815260208101848484011115610c5257610c51610b6a565b5b610c5d848285610c16565b509392505050565b5f82601f830112610c7957610c78610b66565b5b8135610c89848260208601610c24565b91505092915050565b5f5f5f5f5f5f60c08789031215610cac57610cab610967565b5b5f87013567ffffffffffffffff811115610cc957610cc861096b565b5b610cd589828a01610c65565b965050602087013567ffffffffffffffff811115610cf657610cf561096b565b5b610d0289828a01610c65565b955050604087013567ffffffffffffffff811115610d2357610d2261096b565b5b610d2f89828a01610c65565b945050606087013567ffffffffffffffff811115610d5057610d4f61096b565b5b610d5c89828a01610c65565b9350506080610d6d89828a016109b5565b92505060a087013567ffffffffffffffff811115610d8e57610d8d61096b565b5b610d9a89828a01610c65565b9150509295509295509295565b7f4e487b71000000000000000000000000000000000000000000000000000000005f52602260045260245ffd5b5f6002820490506001821680610deb57607f821691505b602082108103610dfe57610dfd610da7565b5b50919050565b7f50617469656e7420616c726561647920726567697374657265640000000000005f82015250565b5f610e38601a836109fe565b9150610e4382610e04565b602082019050919050565b5f6020820190508181035f830152610e6581610e2c565b9050919050565b5f819050815f5260205f209050919050565b5f6020601f8301049050919050565b5f82821b905092915050565b5f60088302610ec87fffffffffffffffffffffffffffffffffffffffffffffffffffffffffffffffff82610e8d565b610ed28683610e8d565b95508019841693508086168417925050509392505050565b5f819050919050565b5f819050919050565b5f610f16610f11610f0c84610eea565b610ef3565b610eea565b9050919050565b5f819050919050565b610f2f83610efc565b610f43610f3b82610f1d565b848454610e99565b825550505050565b5f5f905090565b610f5a610f4b565b610f65818484610f26565b505050565b5b81811015610f8857610f7d5f82610f52565b600181019050610f6b565b5050565b601f821115610fcd57610f9e81610e6c565b610fa784610e7e565b81016020851015610fb6578190505b610fca610fc285610e7e565b830182610f6a565b50505b505050565b5f82821c905092915050565b5f610fed5f1984600802610fd2565b1980831691505092915050565b5f6110058383610fde565b9150826002028217905092915050565b61101e826109f4565b67ffffffffffffffff81111561103757611036610b6e565b5b6110418254610dd4565b61104c828285610f8c565b5f60209050601f83116001811461107d575f841561106b578287015190505b6110758582610ffa565b8655506110dc565b601f19841661108b86610e6c565b5f5b828110156110b25784890151825560018201915060208501945060208101905061108d565b868310156110cf57848901516110cb601f891682610fde565b8355505b6001600288020188555050505b505050505050565b5f6020820190508181035f8301526110fc8184610a2c565b90509291505056fea264697066735822122065d885aad56310ff2a29cbd526366756eedcc4a59523cac9aac9af515852ec2464736f6c634300081c0033",
  "immutableReferences": {},
  "source": "// SPDX-License-Identifier: MIT\r\npragma solidity ^0.8.19;\r\n\r\ncontract PatientRegistry {\r\n    struct Patient {\r\n        string name;\r\n        string dateOfBirth;\r\n        string homeAddress;\r\n        string phoneNumber;\r\n        address walletAddress;\r\n        string gender;\r\n    }\r\n\r\n    mapping(address => bool) public isPatient;\r\n    mapping(address => Patient) public patients;\r\n    mapping(address => mapping(address => bool)) private canCreate;\r\n    event PatientRegistered(address indexed patientAddress, string name);\r\n\r\n    function registerPatient(\r\n        string memory _name,\r\n        string memory _dateOfBirth,\r\n        string memory _homeAddress,\r\n        string memory _phoneNumber,\r\n        address _walletAddress,\r\n        string memory _gender\r\n    ) external {\r\n        require(\r\n            patients[_walletAddress].walletAddress != _walletAddress,\r\n            \"Patient already registered\"\r\n        );\r\n\r\n        Patient memory newPatient = Patient({\r\n            name: _name,\r\n            dateOfBirth: _dateOfBirth,\r\n            homeAddress: _homeAddress,\r\n            phoneNumber: _phoneNumber,\r\n            walletAddress: _walletAddress,\r\n            gender: _gender\r\n        });\r\n\r\n        patients[_walletAddress] = newPatient;\r\n        isPatient[_walletAddress] = true;\r\n        emit PatientRegistered(_walletAddress, _name);\r\n    }\r\n\r\n    function isRegisteredPatient(\r\n        address _walletAddress\r\n    ) external view returns (bool) {\r\n        return isPatient[_walletAddress];\r\n    }\r\n\r\n    function givepermissioncreate(address _walletAddress) public {\r\n        canCreate[msg.sender][_walletAddress] = true;\r\n    }\r\n\r\n    function revokepermissioncreate(address _walletAddress) public {\r\n        canCreate[msg.sender][_walletAddress] = false;\r\n    }\r\n\r\n    function haspermission(\r\n        address patientaddress,\r\n        address _walletAddress\r\n    ) external view returns (bool) {\r\n        return canCreate[patientaddress][_walletAddress];\r\n    }\r\n}\r\n",
  "sourcePath": "F:\\4.1\\Secure-Electronic-Health-Records-c01989145c80a73a2d9fd0057045bd33fe4448ad\\smart health blockchain system\\src\\contracts\\PatientRegistry.sol",
  "compiler": {
    "name": "solc",
    "version": "0.8.28+commit.7893614a.Emscripten.clang"
  },
  "schemaVersion": "3.4.16",
  "updatedAt": "2024-12-23T15:06:34.842Z",
  "networkType": "ethereum",
  "devdoc": {
    "kind": "dev",
    "methods": {},
    "version": 1
  },
  "userdoc": {
    "kind": "user",
    "methods": {},
    "version": 1
  }
}