{
  "contractName": "record2",
  "abi": [
    {
      "inputs": [
        {
          "internalType": "string",
          "name": "_recordId",
          "type": "string"
        },
        {
          "internalType": "string",
          "name": "_patientName",
          "type": "string"
        },
        {
          "internalType": "string",
          "name": "_doctorName",
          "type": "string"
        },
        {
          "internalType": "address",
          "name": "_doctorAddress",
          "type": "address"
        },
        {
          "internalType": "address",
          "name": "_patientAddress",
          "type": "address"
        },
        {
          "internalType": "uint256",
          "name": "_age",
          "type": "uint256"
        },
        {
          "internalType": "string",
          "name": "_gender",
          "type": "string"
        },
        {
          "internalType": "string",
          "name": "_bloodgroup",
          "type": "string"
        },
        {
          "internalType": "string",
          "name": "_cid",
          "type": "string"
        }
      ],
      "name": "createEHR2",
      "outputs": [],
      "stateMutability": "nonpayable",
      "type": "function"
    },
    {
      "inputs": [],
      "name": "getRecords",
      "outputs": [
        {
          "components": [
            {
              "internalType": "string",
              "name": "recordId",
              "type": "string"
            },
            {
              "internalType": "string",
              "name": "patientName",
              "type": "string"
            },
            {
              "internalType": "string",
              "name": "doctorName",
              "type": "string"
            },
            {
              "internalType": "address",
              "name": "doctorAddress",
              "type": "address"
            },
            {
              "internalType": "address",
              "name": "patientAddress",
              "type": "address"
            },
            {
              "internalType": "uint256",
              "name": "age",
              "type": "uint256"
            },
            {
              "internalType": "string",
              "name": "gender",
              "type": "string"
            },
            {
              "internalType": "string",
              "name": "bloodgroup",
              "type": "string"
            },
            {
              "internalType": "string",
              "name": "cid",
              "type": "string"
            }
          ],
          "internalType": "struct record2.Record[]",
          "name": "",
          "type": "tuple[]"
        }
      ],
      "stateMutability": "view",
      "type": "function",
      "constant": true
    },
    {
      "inputs": [
        {
          "internalType": "address",
          "name": "doctorAddress",
          "type": "address"
        }
      ],
      "name": "grantPermission",
      "outputs": [],
      "stateMutability": "nonpayable",
      "type": "function"
    },
    {
      "inputs": [
        {
          "internalType": "address",
          "name": "doctorAddress",
          "type": "address"
        }
      ],
      "name": "revokePermission",
      "outputs": [],
      "stateMutability": "nonpayable",
      "type": "function"
    },
    {
      "inputs": [
        {
          "internalType": "address",
          "name": "patientAddress",
          "type": "address"
        },
        {
          "internalType": "address",
          "name": "doctorAddress",
          "type": "address"
        }
      ],
      "name": "canViewRecord",
      "outputs": [
        {
          "internalType": "bool",
          "name": "",
          "type": "bool"
        }
      ],
      "stateMutability": "view",
      "type": "function",
      "constant": true
    },
    {
      "inputs": [
        {
          "internalType": "address",
          "name": "patientAddress",
          "type": "address"
        }
      ],
      "name": "viewRecord",
      "outputs": [
        {
          "components": [
            {
              "internalType": "string",
              "name": "recordId",
              "type": "string"
            },
            {
              "internalType": "string",
              "name": "patientName",
              "type": "string"
            },
            {
              "internalType": "string",
              "name": "doctorName",
              "type": "string"
            },
            {
              "internalType": "address",
              "name": "doctorAddress",
              "type": "address"
            },
            {
              "internalType": "address",
              "name": "patientAddress",
              "type": "address"
            },
            {
              "internalType": "uint256",
              "name": "age",
              "type": "uint256"
            },
            {
              "internalType": "string",
              "name": "gender",
              "type": "string"
            },
            {
              "internalType": "string",
              "name": "bloodgroup",
              "type": "string"
            },
            {
              "internalType": "string",
              "name": "cid",
              "type": "string"
            }
          ],
          "internalType": "struct record2.Record[]",
          "name": "",
          "type": "tuple[]"
        }
      ],
      "stateMutability": "view",
      "type": "function",
      "constant": true
    }
  ],
  "bytecode": "0x6080604052348015600e575f5ffd5b506118508061001c5f395ff3fe608060405234801561000f575f5ffd5b5060043610610060575f3560e01c80632d8e327814610064578063489950f8146100805780638eff3c29146100b0578063a3bf5b9a146100ce578063b75bf865146100ea578063e2c631631461011a575b5f5ffd5b61007e60048036038101906100799190610f21565b610136565b005b61009a60048036038101906100959190610f4c565b6101c8565b6040516100a79190610fa4565b60405180910390f35b6100b8610256565b6040516100c591906111f4565b60405180910390f35b6100e860048036038101906100e39190610f21565b610700565b005b61010460048036038101906100ff9190610f21565b610792565b60405161011191906111f4565b60405180910390f35b610134600480360381019061012f919061136a565b610cbd565b005b6001805f3373ffffffffffffffffffffffffffffffffffffffff1673ffffffffffffffffffffffffffffffffffffffff1681526020019081526020015f205f8373ffffffffffffffffffffffffffffffffffffffff1673ffffffffffffffffffffffffffffffffffffffff1681526020019081526020015f205f6101000a81548160ff02191690831515021790555050565b5f60015f8473ffffffffffffffffffffffffffffffffffffffff1673ffffffffffffffffffffffffffffffffffffffff1681526020019081526020015f205f8373ffffffffffffffffffffffffffffffffffffffff1673ffffffffffffffffffffffffffffffffffffffff1681526020019081526020015f205f9054906101000a900460ff16905092915050565b60605f5f3373ffffffffffffffffffffffffffffffffffffffff1673ffffffffffffffffffffffffffffffffffffffff1681526020019081526020015f20805480602002602001604051908101604052809291908181526020015f905b828210156106f7578382905f5260205f209060090201604051806101200160405290815f820180546102e490611503565b80601f016020809104026020016040519081016040528092919081815260200182805461031090611503565b801561035b5780601f106103325761010080835404028352916020019161035b565b820191905f5260205f20905b81548152906001019060200180831161033e57829003601f168201915b5050505050815260200160018201805461037490611503565b80601f01602080910402602001604051908101604052809291908181526020018280546103a090611503565b80156103eb5780601f106103c2576101008083540402835291602001916103eb565b820191905f5260205f20905b8154815290600101906020018083116103ce57829003601f168201915b5050505050815260200160028201805461040490611503565b80601f016020809104026020016040519081016040528092919081815260200182805461043090611503565b801561047b5780601f106104525761010080835404028352916020019161047b565b820191905f5260205f20905b81548152906001019060200180831161045e57829003601f168201915b50505050508152602001600382015f9054906101000a900473ffffffffffffffffffffffffffffffffffffffff1673ffffffffffffffffffffffffffffffffffffffff1673ffffffffffffffffffffffffffffffffffffffff168152602001600482015f9054906101000a900473ffffffffffffffffffffffffffffffffffffffff1673ffffffffffffffffffffffffffffffffffffffff1673ffffffffffffffffffffffffffffffffffffffff1681526020016005820154815260200160068201805461054890611503565b80601f016020809104026020016040519081016040528092919081815260200182805461057490611503565b80156105bf5780601f10610596576101008083540402835291602001916105bf565b820191905f5260205f20905b8154815290600101906020018083116105a257829003601f168201915b505050505081526020016007820180546105d890611503565b80601f016020809104026020016040519081016040528092919081815260200182805461060490611503565b801561064f5780601f106106265761010080835404028352916020019161064f565b820191905f5260205f20905b81548152906001019060200180831161063257829003601f168201915b5050505050815260200160088201805461066890611503565b80601f016020809104026020016040519081016040528092919081815260200182805461069490611503565b80156106df5780601f106106b6576101008083540402835291602001916106df565b820191905f5260205f20905b8154815290600101906020018083116106c257829003601f168201915b505050505081525050815260200190600101906102b3565b50505050905090565b5f60015f3373ffffffffffffffffffffffffffffffffffffffff1673ffffffffffffffffffffffffffffffffffffffff1681526020019081526020015f205f8373ffffffffffffffffffffffffffffffffffffffff1673ffffffffffffffffffffffffffffffffffffffff1681526020019081526020015f205f6101000a81548160ff02191690831515021790555050565b60603373ffffffffffffffffffffffffffffffffffffffff168273ffffffffffffffffffffffffffffffffffffffff1614806107d457506107d382336101c8565b5b610813576040517f08c379a000000000000000000000000000000000000000000000000000000000815260040161080a9061158d565b60405180910390fd5b5f5f8373ffffffffffffffffffffffffffffffffffffffff1673ffffffffffffffffffffffffffffffffffffffff1681526020019081526020015f20805480602002602001604051908101604052809291908181526020015f905b82821015610cb2578382905f5260205f209060090201604051806101200160405290815f8201805461089f90611503565b80601f01602080910402602001604051908101604052809291908181526020018280546108cb90611503565b80156109165780601f106108ed57610100808354040283529160200191610916565b820191905f5260205f20905b8154815290600101906020018083116108f957829003601f168201915b5050505050815260200160018201805461092f90611503565b80601f016020809104026020016040519081016040528092919081815260200182805461095b90611503565b80156109a65780601f1061097d576101008083540402835291602001916109a6565b820191905f5260205f20905b81548152906001019060200180831161098957829003601f168201915b505050505081526020016002820180546109bf90611503565b80601f01602080910402602001604051908101604052809291908181526020018280546109eb90611503565b8015610a365780601f10610a0d57610100808354040283529160200191610a36565b820191905f5260205f20905b815481529060010190602001808311610a1957829003601f168201915b50505050508152602001600382015f9054906101000a900473ffffffffffffffffffffffffffffffffffffffff1673ffffffffffffffffffffffffffffffffffffffff1673ffffffffffffffffffffffffffffffffffffffff168152602001600482015f9054906101000a900473ffffffffffffffffffffffffffffffffffffffff1673ffffffffffffffffffffffffffffffffffffffff1673ffffffffffffffffffffffffffffffffffffffff16815260200160058201548152602001600682018054610b0390611503565b80601f0160208091040260200160405190810160405280929190818152602001828054610b2f90611503565b8015610b7a5780601f10610b5157610100808354040283529160200191610b7a565b820191905f5260205f20905b815481529060010190602001808311610b5d57829003601f168201915b50505050508152602001600782018054610b9390611503565b80601f0160208091040260200160405190810160405280929190818152602001828054610bbf90611503565b8015610c0a5780601f10610be157610100808354040283529160200191610c0a565b820191905f5260205f20905b815481529060010190602001808311610bed57829003601f168201915b50505050508152602001600882018054610c2390611503565b80601f0160208091040260200160405190810160405280929190818152602001828054610c4f90611503565b8015610c9a5780601f10610c7157610100808354040283529160200191610c9a565b820191905f5260205f20905b815481529060010190602001808311610c7d57829003601f168201915b5050505050815250508152602001906001019061086e565b505050509050919050565b5f6040518061012001604052808b81526020018a81526020018981526020018873ffffffffffffffffffffffffffffffffffffffff1681526020018773ffffffffffffffffffffffffffffffffffffffff1681526020018681526020018581526020018481526020018381525090505f5f3373ffffffffffffffffffffffffffffffffffffffff1673ffffffffffffffffffffffffffffffffffffffff1681526020019081526020015f2081908060018154018082558091505060019003905f5260205f2090600902015f909190919091505f820151815f019081610da2919061174b565b506020820151816001019081610db8919061174b565b506040820151816002019081610dce919061174b565b506060820151816003015f6101000a81548173ffffffffffffffffffffffffffffffffffffffff021916908373ffffffffffffffffffffffffffffffffffffffff1602179055506080820151816004015f6101000a81548173ffffffffffffffffffffffffffffffffffffffff021916908373ffffffffffffffffffffffffffffffffffffffff16021790555060a0820151816005015560c0820151816006019081610e7a919061174b565b5060e0820151816007019081610e90919061174b565b50610100820151816008019081610ea7919061174b565b50505050505050505050505050565b5f604051905090565b5f5ffd5b5f5ffd5b5f73ffffffffffffffffffffffffffffffffffffffff82169050919050565b5f610ef082610ec7565b9050919050565b610f0081610ee6565b8114610f0a575f5ffd5b50565b5f81359050610f1b81610ef7565b92915050565b5f60208284031215610f3657610f35610ebf565b5b5f610f4384828501610f0d565b91505092915050565b5f5f60408385031215610f6257610f61610ebf565b5b5f610f6f85828601610f0d565b9250506020610f8085828601610f0d565b9150509250929050565b5f8115159050919050565b610f9e81610f8a565b82525050565b5f602082019050610fb75f830184610f95565b92915050565b5f81519050919050565b5f82825260208201905092915050565b5f819050602082019050919050565b5f81519050919050565b5f82825260208201905092915050565b8281835e5f83830152505050565b5f601f19601f8301169050919050565b5f61102882610fe6565b6110328185610ff0565b9350611042818560208601611000565b61104b8161100e565b840191505092915050565b61105f81610ee6565b82525050565b5f819050919050565b61107781611065565b82525050565b5f61012083015f8301518482035f860152611098828261101e565b915050602083015184820360208601526110b2828261101e565b915050604083015184820360408601526110cc828261101e565b91505060608301516110e16060860182611056565b5060808301516110f46080860182611056565b5060a083015161110760a086018261106e565b5060c083015184820360c086015261111f828261101e565b91505060e083015184820360e0860152611139828261101e565b915050610100830151848203610100860152611155828261101e565b9150508091505092915050565b5f61116d838361107d565b905092915050565b5f602082019050919050565b5f61118b82610fbd565b6111958185610fc7565b9350836020820285016111a785610fd7565b805f5b858110156111e257848403895281516111c38582611162565b94506111ce83611175565b925060208a019950506001810190506111aa565b50829750879550505050505092915050565b5f6020820190508181035f83015261120c8184611181565b905092915050565b5f5ffd5b5f5ffd5b7f4e487b71000000000000000000000000000000000000000000000000000000005f52604160045260245ffd5b6112528261100e565b810181811067ffffffffffffffff821117156112715761127061121c565b5b80604052505050565b5f611283610eb6565b905061128f8282611249565b919050565b5f67ffffffffffffffff8211156112ae576112ad61121c565b5b6112b78261100e565b9050602081019050919050565b828183375f83830152505050565b5f6112e46112df84611294565b61127a565b905082815260208101848484011115611300576112ff611218565b5b61130b8482856112c4565b509392505050565b5f82601f83011261132757611326611214565b5b81356113378482602086016112d2565b91505092915050565b61134981611065565b8114611353575f5ffd5b50565b5f8135905061136481611340565b92915050565b5f5f5f5f5f5f5f5f5f6101208a8c03121561138857611387610ebf565b5b5f8a013567ffffffffffffffff8111156113a5576113a4610ec3565b5b6113b18c828d01611313565b99505060208a013567ffffffffffffffff8111156113d2576113d1610ec3565b5b6113de8c828d01611313565b98505060408a013567ffffffffffffffff8111156113ff576113fe610ec3565b5b61140b8c828d01611313565b975050606061141c8c828d01610f0d565b965050608061142d8c828d01610f0d565b95505060a061143e8c828d01611356565b94505060c08a013567ffffffffffffffff81111561145f5761145e610ec3565b5b61146b8c828d01611313565b93505060e08a013567ffffffffffffffff81111561148c5761148b610ec3565b5b6114988c828d01611313565b9250506101008a013567ffffffffffffffff8111156114ba576114b9610ec3565b5b6114c68c828d01611313565b9150509295985092959850929598565b7f4e487b71000000000000000000000000000000000000000000000000000000005f52602260045260245ffd5b5f600282049050600182168061151a57607f821691505b60208210810361152d5761152c6114d6565b5b50919050565b5f82825260208201905092915050565b7f4e6f7420617574686f72697a656420746f2076696577207265636f72647300005f82015250565b5f611577601e83611533565b915061158282611543565b602082019050919050565b5f6020820190508181035f8301526115a48161156b565b9050919050565b5f819050815f5260205f209050919050565b5f6020601f8301049050919050565b5f82821b905092915050565b5f600883026116077fffffffffffffffffffffffffffffffffffffffffffffffffffffffffffffffff826115cc565b61161186836115cc565b95508019841693508086168417925050509392505050565b5f819050919050565b5f61164c61164761164284611065565b611629565b611065565b9050919050565b5f819050919050565b61166583611632565b61167961167182611653565b8484546115d8565b825550505050565b5f5f905090565b611690611681565b61169b81848461165c565b505050565b5b818110156116be576116b35f82611688565b6001810190506116a1565b5050565b601f821115611703576116d4816115ab565b6116dd846115bd565b810160208510156116ec578190505b6117006116f8856115bd565b8301826116a0565b50505b505050565b5f82821c905092915050565b5f6117235f1984600802611708565b1980831691505092915050565b5f61173b8383611714565b9150826002028217905092915050565b61175482610fe6565b67ffffffffffffffff81111561176d5761176c61121c565b5b6117778254611503565b6117828282856116c2565b5f60209050601f8311600181146117b3575f84156117a1578287015190505b6117ab8582611730565b865550611812565b601f1984166117c1866115ab565b5f5b828110156117e8578489015182556001820191506020850194506020810190506117c3565b868310156118055784890151611801601f891682611714565b8355505b6001600288020188555050505b50505050505056fea2646970667358221220165d6c9e9156914e25fff3cf0e7c41a873da7acb8a6e6a40265ddd1f50e4c67a64736f6c634300081c0033",
  "immutableReferences": {},
  "source": "// SPDX-License-Identifier: MIT\npragma solidity ^0.8.19;\n\ncontract record2 {\n    struct Record {\n        string recordId;\n        string patientName;\n        string doctorName;\n        address doctorAddress;\n        address patientAddress;\n        uint256 age;\n        string gender;\n        string bloodgroup;\n        string cid;\n    }\n    mapping(address => Record[]) private records;\n    mapping(address => mapping(address => bool)) private doctorPermissions;\n\n    function createEHR2(\n        string memory _recordId,\n        string memory _patientName,\n        string memory _doctorName,\n        address _doctorAddress,\n        address _patientAddress,\n        uint256 _age,\n        string memory _gender,\n        string memory _bloodgroup,\n        string memory _cid\n    ) public {\n        Record memory newRecord = Record(\n            _recordId,\n            _patientName,\n            _doctorName,\n            _doctorAddress,\n            _patientAddress,\n            _age,\n            _gender,\n            _bloodgroup,\n            _cid\n        );\n        records[msg.sender].push(newRecord);\n    }\n\n    function getRecords() public view returns (Record[] memory) {\n        return records[msg.sender];\n    }\n\n    function grantPermission(address doctorAddress) public {\n        doctorPermissions[msg.sender][doctorAddress] = true;\n    }\n\n    function revokePermission(address doctorAddress) public {\n        doctorPermissions[msg.sender][doctorAddress] = false;\n    }\n\n    function canViewRecord(\n        address patientAddress,\n        address doctorAddress\n    ) public view returns (bool) {\n        return doctorPermissions[patientAddress][doctorAddress];\n    }\n\n    function viewRecord(\n        address patientAddress\n    ) public view returns (Record[] memory) {\n        require(\n            patientAddress == msg.sender ||\n                canViewRecord(patientAddress, msg.sender),\n            \"Not authorized to view records\"\n        );\n        return records[patientAddress];\n    }\n}\n",
  "sourcePath": "F:\\4.1\\Secure-Electronic-Health-Records-c01989145c80a73a2d9fd0057045bd33fe4448ad\\smart health blockchain system\\src\\contracts\\record2.sol",
  "compiler": {
    "name": "solc",
    "version": "0.8.28+commit.7893614a.Emscripten.clang"
  },
  "schemaVersion": "3.4.16",
  "updatedAt": "2024-12-23T15:08:25.750Z",
  "networkType": "ethereum",
  "devdoc": {
    "kind": "dev",
    "methods": {},
    "version": 1
  },
  "userdoc": {
    "kind": "user",
    "methods": {},
    "version": 1
  }
}