{
  "contractName": "RecordContract",
  "abi": [
    {
      "inputs": [
        {
          "internalType": "string",
          "name": "_diagnosis",
          "type": "string"
        },
        {
          "internalType": "string",
          "name": "_prescription",
          "type": "string"
        },
        {
          "internalType": "string",
          "name": "_docSignature",
          "type": "string"
        }
      ],
      "name": "createEHR",
      "outputs": [],
      "stateMutability": "nonpayable",
      "type": "function"
    },
    {
      "inputs": [],
      "name": "getRecords",
      "outputs": [
        {
          "components": [
            {
              "internalType": "string",
              "name": "diagnosis",
              "type": "string"
            },
            {
              "internalType": "string",
              "name": "prescription",
              "type": "string"
            },
            {
              "internalType": "string",
              "name": "docSignature",
              "type": "string"
            }
          ],
          "internalType": "struct RecordContract.Record[]",
          "name": "",
          "type": "tuple[]"
        }
      ],
      "stateMutability": "view",
      "type": "function"
    },
    {
      "inputs": [
        {
          "internalType": "address",
          "name": "doctorAddress",
          "type": "address"
        }
      ],
      "name": "grantPermission",
      "outputs": [],
      "stateMutability": "nonpayable",
      "type": "function"
    },
    {
      "inputs": [
        {
          "internalType": "address",
          "name": "doctorAddress",
          "type": "address"
        }
      ],
      "name": "revokePermission",
      "outputs": [],
      "stateMutability": "nonpayable",
      "type": "function"
    },
    {
      "inputs": [
        {
          "internalType": "address",
          "name": "patientAddress",
          "type": "address"
        },
        {
          "internalType": "address",
          "name": "doctorAddress",
          "type": "address"
        }
      ],
      "name": "canViewRecord",
      "outputs": [
        {
          "internalType": "bool",
          "name": "",
          "type": "bool"
        }
      ],
      "stateMutability": "view",
      "type": "function"
    },
    {
      "inputs": [
        {
          "internalType": "address",
          "name": "patientAddress",
          "type": "address"
        }
      ],
      "name": "viewRecord",
      "outputs": [
        {
          "components": [
            {
              "internalType": "string",
              "name": "diagnosis",
              "type": "string"
            },
            {
              "internalType": "string",
              "name": "prescription",
              "type": "string"
            },
            {
              "internalType": "string",
              "name": "docSignature",
              "type": "string"
            }
          ],
          "internalType": "struct RecordContract.Record[]",
          "name": "",
          "type": "tuple[]"
        }
      ],
      "stateMutability": "view",
      "type": "function"
    }
  ],
  "bytecode": "0x6080604052348015600e575f5ffd5b506110bc8061001c5f395ff3fe608060405234801561000f575f5ffd5b5060043610610060575f3560e01c80632d8e327814610064578063489950f8146100805780638eff3c29146100b0578063a3bf5b9a146100ce578063b75bf865146100ea578063d4a3b65b1461011a575b5f5ffd5b61007e60048036038101906100799190610927565b610136565b005b61009a60048036038101906100959190610952565b6101c8565b6040516100a791906109aa565b60405180910390f35b6100b8610256565b6040516100c59190610b49565b60405180910390f35b6100e860048036038101906100e39190610927565b61049b565b005b61010460048036038101906100ff9190610927565b61052d565b6040516101119190610b49565b60405180910390f35b610134600480360381019061012f9190610c95565b6107f3565b005b6001805f3373ffffffffffffffffffffffffffffffffffffffff1673ffffffffffffffffffffffffffffffffffffffff1681526020019081526020015f205f8373ffffffffffffffffffffffffffffffffffffffff1673ffffffffffffffffffffffffffffffffffffffff1681526020019081526020015f205f6101000a81548160ff02191690831515021790555050565b5f60015f8473ffffffffffffffffffffffffffffffffffffffff1673ffffffffffffffffffffffffffffffffffffffff1681526020019081526020015f205f8373ffffffffffffffffffffffffffffffffffffffff1673ffffffffffffffffffffffffffffffffffffffff1681526020019081526020015f205f9054906101000a900460ff16905092915050565b60605f5f3373ffffffffffffffffffffffffffffffffffffffff1673ffffffffffffffffffffffffffffffffffffffff1681526020019081526020015f20805480602002602001604051908101604052809291908181526020015f905b82821015610492578382905f5260205f2090600302016040518060600160405290815f820180546102e390610d66565b80601f016020809104026020016040519081016040528092919081815260200182805461030f90610d66565b801561035a5780601f106103315761010080835404028352916020019161035a565b820191905f5260205f20905b81548152906001019060200180831161033d57829003601f168201915b5050505050815260200160018201805461037390610d66565b80601f016020809104026020016040519081016040528092919081815260200182805461039f90610d66565b80156103ea5780601f106103c1576101008083540402835291602001916103ea565b820191905f5260205f20905b8154815290600101906020018083116103cd57829003601f168201915b5050505050815260200160028201805461040390610d66565b80601f016020809104026020016040519081016040528092919081815260200182805461042f90610d66565b801561047a5780601f106104515761010080835404028352916020019161047a565b820191905f5260205f20905b81548152906001019060200180831161045d57829003601f168201915b505050505081525050815260200190600101906102b3565b50505050905090565b5f60015f3373ffffffffffffffffffffffffffffffffffffffff1673ffffffffffffffffffffffffffffffffffffffff1681526020019081526020015f205f8373ffffffffffffffffffffffffffffffffffffffff1673ffffffffffffffffffffffffffffffffffffffff1681526020019081526020015f205f6101000a81548160ff02191690831515021790555050565b60603373ffffffffffffffffffffffffffffffffffffffff168273ffffffffffffffffffffffffffffffffffffffff16148061056f575061056e82336101c8565b5b6105ae576040517f08c379a00000000000000000000000000000000000000000000000000000000081526004016105a590610df0565b60405180910390fd5b5f5f8373ffffffffffffffffffffffffffffffffffffffff1673ffffffffffffffffffffffffffffffffffffffff1681526020019081526020015f20805480602002602001604051908101604052809291908181526020015f905b828210156107e8578382905f5260205f2090600302016040518060600160405290815f8201805461063990610d66565b80601f016020809104026020016040519081016040528092919081815260200182805461066590610d66565b80156106b05780601f10610687576101008083540402835291602001916106b0565b820191905f5260205f20905b81548152906001019060200180831161069357829003601f168201915b505050505081526020016001820180546106c990610d66565b80601f01602080910402602001604051908101604052809291908181526020018280546106f590610d66565b80156107405780601f1061071757610100808354040283529160200191610740565b820191905f5260205f20905b81548152906001019060200180831161072357829003601f168201915b5050505050815260200160028201805461075990610d66565b80601f016020809104026020016040519081016040528092919081815260200182805461078590610d66565b80156107d05780601f106107a7576101008083540402835291602001916107d0565b820191905f5260205f20905b8154815290600101906020018083116107b357829003601f168201915b50505050508152505081526020019060010190610609565b505050509050919050565b5f60405180606001604052808581526020018481526020018381525090505f5f3373ffffffffffffffffffffffffffffffffffffffff1673ffffffffffffffffffffffffffffffffffffffff1681526020019081526020015f2081908060018154018082558091505060019003905f5260205f2090600302015f909190919091505f820151815f0190816108879190610fb7565b50602082015181600101908161089d9190610fb7565b5060408201518160020190816108b39190610fb7565b50505050505050565b5f604051905090565b5f5ffd5b5f5ffd5b5f73ffffffffffffffffffffffffffffffffffffffff82169050919050565b5f6108f6826108cd565b9050919050565b610906816108ec565b8114610910575f5ffd5b50565b5f81359050610921816108fd565b92915050565b5f6020828403121561093c5761093b6108c5565b5b5f61094984828501610913565b91505092915050565b5f5f60408385031215610968576109676108c5565b5b5f61097585828601610913565b925050602061098685828601610913565b9150509250929050565b5f8115159050919050565b6109a481610990565b82525050565b5f6020820190506109bd5f83018461099b565b92915050565b5f81519050919050565b5f82825260208201905092915050565b5f819050602082019050919050565b5f81519050919050565b5f82825260208201905092915050565b8281835e5f83830152505050565b5f601f19601f8301169050919050565b5f610a2e826109ec565b610a3881856109f6565b9350610a48818560208601610a06565b610a5181610a14565b840191505092915050565b5f606083015f8301518482035f860152610a768282610a24565b91505060208301518482036020860152610a908282610a24565b91505060408301518482036040860152610aaa8282610a24565b9150508091505092915050565b5f610ac28383610a5c565b905092915050565b5f602082019050919050565b5f610ae0826109c3565b610aea81856109cd565b935083602082028501610afc856109dd565b805f5b85811015610b375784840389528151610b188582610ab7565b9450610b2383610aca565b925060208a01995050600181019050610aff565b50829750879550505050505092915050565b5f6020820190508181035f830152610b618184610ad6565b905092915050565b5f5ffd5b5f5ffd5b7f4e487b71000000000000000000000000000000000000000000000000000000005f52604160045260245ffd5b610ba782610a14565b810181811067ffffffffffffffff82111715610bc657610bc5610b71565b5b80604052505050565b5f610bd86108bc565b9050610be48282610b9e565b919050565b5f67ffffffffffffffff821115610c0357610c02610b71565b5b610c0c82610a14565b9050602081019050919050565b828183375f83830152505050565b5f610c39610c3484610be9565b610bcf565b905082815260208101848484011115610c5557610c54610b6d565b5b610c60848285610c19565b509392505050565b5f82601f830112610c7c57610c7b610b69565b5b8135610c8c848260208601610c27565b91505092915050565b5f5f5f60608486031215610cac57610cab6108c5565b5b5f84013567ffffffffffffffff811115610cc957610cc86108c9565b5b610cd586828701610c68565b935050602084013567ffffffffffffffff811115610cf657610cf56108c9565b5b610d0286828701610c68565b925050604084013567ffffffffffffffff811115610d2357610d226108c9565b5b610d2f86828701610c68565b9150509250925092565b7f4e487b71000000000000000000000000000000000000000000000000000000005f52602260045260245ffd5b5f6002820490506001821680610d7d57607f821691505b602082108103610d9057610d8f610d39565b5b50919050565b5f82825260208201905092915050565b7f4e6f7420617574686f72697a656420746f2076696577207265636f72647300005f82015250565b5f610dda601e83610d96565b9150610de582610da6565b602082019050919050565b5f6020820190508181035f830152610e0781610dce565b9050919050565b5f819050815f5260205f209050919050565b5f6020601f8301049050919050565b5f82821b905092915050565b5f60088302610e6a7fffffffffffffffffffffffffffffffffffffffffffffffffffffffffffffffff82610e2f565b610e748683610e2f565b95508019841693508086168417925050509392505050565b5f819050919050565b5f819050919050565b5f610eb8610eb3610eae84610e8c565b610e95565b610e8c565b9050919050565b5f819050919050565b610ed183610e9e565b610ee5610edd82610ebf565b848454610e3b565b825550505050565b5f5f905090565b610efc610eed565b610f07818484610ec8565b505050565b5b81811015610f2a57610f1f5f82610ef4565b600181019050610f0d565b5050565b601f821115610f6f57610f4081610e0e565b610f4984610e20565b81016020851015610f58578190505b610f6c610f6485610e20565b830182610f0c565b50505b505050565b5f82821c905092915050565b5f610f8f5f1984600802610f74565b1980831691505092915050565b5f610fa78383610f80565b9150826002028217905092915050565b610fc0826109ec565b67ffffffffffffffff811115610fd957610fd8610b71565b5b610fe38254610d66565b610fee828285610f2e565b5f60209050601f83116001811461101f575f841561100d578287015190505b6110178582610f9c565b86555061107e565b601f19841661102d86610e0e565b5f5b828110156110545784890151825560018201915060208501945060208101905061102f565b86831015611071578489015161106d601f891682610f80565b8355505b6001600288020188555050505b50505050505056fea264697066735822122004d79e90fe16f6b99b840e6b9ed03525239355b35297f25e37bf15477ceab3ef64736f6c634300081c0033",
  "immutableReferences": {},
  "source": "// SPDX-License-Identifier: MIT\r\npragma solidity ^0.8.19;\r\n\r\ncontract RecordContract {\r\n    struct Record {\r\n        string diagnosis;\r\n        string prescription;\r\n        string docSignature;\r\n    }\r\n    \r\n    mapping(address => Record[]) private records;\r\n    mapping(address => mapping(address => bool)) private doctorPermissions;\r\n\r\n    function createEHR(\r\n        string memory _diagnosis,\r\n        string memory _prescription,\r\n        string memory _docSignature\r\n    ) public {\r\n        Record memory newRecord = Record(\r\n            _diagnosis,\r\n            _prescription,\r\n            _docSignature\r\n        );\r\n        records[msg.sender].push(newRecord);\r\n    }\r\n\r\n    function getRecords() public view returns (Record[] memory) {\r\n        return records[msg.sender];\r\n    }\r\n\r\n    function grantPermission(address doctorAddress) public {\r\n        doctorPermissions[msg.sender][doctorAddress] = true;\r\n    }\r\n\r\n    function revokePermission(address doctorAddress) public {\r\n        doctorPermissions[msg.sender][doctorAddress] = false;\r\n    }\r\n\r\n    function canViewRecord(\r\n        address patientAddress,\r\n        address doctorAddress\r\n    ) public view returns (bool) {\r\n        return doctorPermissions[patientAddress][doctorAddress];\r\n    }\r\n\r\n    function viewRecord(\r\n        address patientAddress\r\n    ) public view returns (Record[] memory) {\r\n        require(\r\n            patientAddress == msg.sender ||\r\n                canViewRecord(patientAddress, msg.sender),\r\n            \"Not authorized to view records\"\r\n        );\r\n        return records[patientAddress];\r\n    }\r\n}\r\n",
  "sourcePath": "F:\\4.1\\Secure-Electronic-Health-Records-c01989145c80a73a2d9fd0057045bd33fe4448ad\\smart health blockchain system\\src\\contracts\\record.sol",
  "compiler": {
    "name": "solc",
    "version": "0.8.28+commit.7893614a.Emscripten.clang"
  },
  "schemaVersion": "3.4.16",
  "updatedAt": "2024-12-23T15:05:12.787Z",
  "devdoc": {
    "kind": "dev",
    "methods": {},
    "version": 1
  },
  "userdoc": {
    "kind": "user",
    "methods": {},
    "version": 1
  }
}